:020000040000FA
:1000000007309F008316F73085000030860081128C
:1000100081158312A101A201A401A601A501A701D6
:1000200083169B011C141A088312A0000310F63ECD
:10003000031C1C28A00121149A3081000B1103011C
:100040000311A007031939282714051D2B282008A0
:100050002E2086003C28323086003C288207E73478
:100060002134B634B5347134D534D734A134F734AF
:10007000F5342710E730860003010311A4070319A4
:100080004828051B4528A4035628FF30A4005628FD
:10009000051F5628FF30A400211420080310F73E46
:1000A00003185428A00A5628A0012710211C6428F0
:1000B000200883169A009B011C1555309D00AA301C
:1000C0009D009C148312211027186D28051A6A2898
:1000D00085151C28851186111C28051E9228221CB6
:1000E00072289A282214051978282508A6009A282B
:1000F0002508A3000310A30C0310A30C230803106E
:10010000A019A6070310A30C23082019A6070310A3
:10011000A30C2308A018A6070310A30C230820187B
:10012000A6079A288515221003117F302502031D8A
:10013000A50AA328A501031103012602031DA22875
:0C0140008511A328A6030B1DA3281C2872
:02400E00103F61
:00000001FF
